:100000000C945D000C9485000C9485000C94850084
:100010000C9485000C9485000C9485000C9485004C
:100020000C9485000C9485000C9485000C9485003C
:100030000C9485000C9485000C9485000C9485002C
:100040000C9444070C9485000C9412070C94EC0655
:100050000C9485000C9485000C9485000C9485000C
:100060000C9485000C9485000000000024002700FB
:100070002A0000000000250028002B0004040404CE
:100080000404040402020202020203030303030342
:10009000010204081020408001020408102001021F
:1000A00004081020000000080002010000030407FB
:1000B00000000000000000008E0711241FBECFEFDB
:1000C000D8E0DEBFCDBF11E0A0E0B1E0EAEDF7E19E
:1000D00002C005900D92AE35B107D9F722E0AEE52A
:1000E000B1E001C01D92A53DB207E1F710E0CDE5FA
:1000F000D0E004C02197FE010E94AC0ACC35D107A4
:10010000C9F70E94F0070C94EB0B0C9400000F93BE
:100110001F93CF93DF93EC018B0188819981009726
:1001200039F0DC01ED91FC910280F381E02D09951D
:1001300019830883F801D383C283DF91CF911F9184
:100140000F91089580E991E00895AF92BF92CF9208
:10015000DF92EF92FF920F931F93CF93DF936C0187
:100160007B018B01040F151FEB015E01AE18BF0868
:10017000C017D10759F06991D601ED91FC9101901A
:10018000F081E02DC6010995892B79F7C501DF9132
:10019000CF911F910F91FF90EF90DF90CF90BF9084
:1001A000AF900895FC01538D448D252F30E0842FAE
:1001B00090E0821B930B541710F0CF96089501978F
:1001C0000895FC01918D828D981761F0A28DAE0F7C
:1001D000BF2FB11D5D968C91928D9F5F9F73928F03
:1001E00090E008958FEF9FEF0895FC01918D828D2F
:1001F000981731F0828DE80FF11D858D90E00895FC
:100200008FEF9FEF0895FC01918D228D892F90E053
:10021000805C9F4F821B91098F739927089580E915
:1002200091E00E94030121E0892B09F420E0822F54
:10023000089580E090E0892B29F00E940F01811140
:100240000C9400000895FC01A48DA80FB92FB11DD6
:10025000A35ABF4F2C91848D90E001968F739927FC
:10026000848FA689B7892C93A089B1898C918370DA
:1002700080648C93938D848D981306C00288F389D3
:10028000E02D80818F7D80830895EF92FF920F9300
:100290001F93CF93DF93EC0181E0888F9B8D8C8D32
:1002A00098131AC0E889F989808185FF15C09FB726
:1002B000F894EE89FF896083E889F98980818370E9
:1002C000806480839FBF81E090E0DF91CF911F9198
:1002D0000F91FF90EF900895F62E0B8D10E00F5FB9
:1002E0001F4F0F731127E02E8C8D8E110CC00FB68F
:1002F00007FCFACFE889F989808185FFF5CFCE0127
:100300000E942301F1CFEB8DEC0FFD2FF11DE35A7D
:10031000FF4FF0829FB7F8940B8FEA89FB898081A9
:100320008062CFCF682F80E991E00C944501CF9394
:10033000DF93EC01888D8823B9F0AA89BB89E8890D
:10034000F9898C9185FD03C0808186FD0DC00FB6B3
:1003500007FCF7CF8C9185FFF2CF808185FFEDCF31
:10036000CE010E942301E9CFDF91CF9108953FB7DD
:10037000F8948091610190916201A0916301B09124
:10038000640126B5A89B05C02F3F19F00196A11D59
:10039000B11D3FBFBA2FA92F982F8827BC01CD01CF
:1003A000620F711D811D911D42E0660F771F881F2E
:1003B000991F4A95D1F708954F925F926F927F925D
:1003C0009F92AF92BF92CF92DF92EF92FF920F93E4
:1003D0001F93CF93DF9300D01F92CDB7DEB7D82EF7
:1003E0008091300290913102A0913202B09133029B
:1003F000892B8A2B8B2BD9F00E94B70100918C019D
:1004000010918D0120918E0130918F01601B710B35
:10041000820B930B00913002109131022091320235
:10042000309133026017710782079307C8F20E9468
:10043000B70160938C0170938D0180938E0190932E
:100440008F01E0913802F0913902309759F04091D4
:1004500034025091350260913602709137028D2D31
:100460000995D82EE0908A01F0908B014D2C512CEB
:10047000712C612CE114F10409F459C0D7011C96C8
:10048000CC901C9780912E0290912F02843691057A
:1004900010F41C961C92D701ED91FC91A280B380C0
:1004A00019821A821B82DD2079F1F701369610E05D
:1004B00000E02191222319F19280992001F130E08E
:1004C00050E040E02F5F3F4F4F4F5F4FC301B201FD
:1004D0000E94400A9B01AC01892D90E0B0E0A0E0B1
:1004E000BC01CD016F5F7F4F8F4F9F4F0E94400A2D
:1004F000A1E0B0E0AC0FBD1FA00FB11F8C930F5F48
:100500001F4F03301105A9F609811A812B81F701CC
:100510004585568562817381C701F5010995D7012B
:100520001C96CC921C971496ED90FC90A3CF8091D2
:100530008801909189019C012F5F3F4F3093890181
:100540002093880149970CF44AC08FB7F894209102
:1005500080013091810140918201509183018FBFD0
:100560008091840190918501A0918601B0918701CD
:10057000281B390B4A0B5B0B21F421E030E040E0F3
:1005800050E0E0918801F091890188EE93E0E89FC6
:10059000B001E99F700DF89F700D1124072E000C1B
:1005A000880B990B0E94640A30932F0220932E022D
:1005B00010928901109288012FB7F89480918001E0
:1005C00090918101A0918201B09183012FBF80930E
:1005D000840190938501A0938601B09387010F90C9
:1005E0000F900F90DF91CF911F910F91FF90EF909F
:1005F000DF90CF90BF90AF909F907F906F905F9073
:100600004F90089508958F929F92AF92BF92CF928C
:10061000DF92EF92FF92CF93DF93EC018C818130D8
:1006200001F1823009F467C0811139C090E080E0A7
:100630004FEFAA81BB8116962D913C911797821797
:10064000930754F59C01220F331F280F391F129670
:10065000ED91FC91E20FF31F40831182128201960B
:10066000E8CF90E080E04FEFAA81BB8116962D91F4
:100670003C911797821793077CF49C01220F331F3C
:10068000280F391F1296ED91FC91E20FF31F108293
:10069000418312820196E8CF8C818F5F8C83809199
:1006A0002D020E94DC01EA81FB81C480D5800D2CE3
:1006B000000CEE08FF080E94B7014B015C01C11459
:1006C000D104E104F104A1F10E94B701681979098C
:1006D0008A099B09683E73408105910580F321E0FA
:1006E000C21AD108E108F10888EE880E83E0981E4E
:1006F000A11CB11CE4CF90E080E04FEFAA81BB8148
:1007000016962D913C911797821793077CF49C01C4
:10071000220F331F280F391F1296ED91FC91E20F23
:10072000F31F1082118242830196E8CF1C82B7CF5B
:10073000DF91CF91FF90EF90DF90CF90BF90AF907F
:100740009F908F9008950F931F93CF93DF932091E5
:100750005F012F5F322F377030935F0120FF2BC076
:1007600020E831FD2064347009F02062205FFC0134
:10077000EC01239600E011E06485662329F070E027
:10078000C8010E94500A6F5F6187322F369F030EA7
:1007900030E0311D1124311110C01682662311F092
:1007A000615061873196EC17FD0731F7DF91CF91EA
:1007B0001F910F91089520E0D4CF31503683EECFB2
:1007C0004F925F926F927F928F92AF92BF92CF9231
:1007D000DF92EF920F931F93CF93DF933C01EB01D6
:1007E0000E94B701F30127853089621B730B6A30C1
:1007F0007105B0F3F894E881F98175B1706165B164
:100800006F7E65B9C9848E812C2D281B822F2E8383
:10081000BF844A805B801C850D85DE841F5F0F5F6F
:10082000D3949F813885AA84EB844081D20120E053
:10083000C32F522F322F3081442788943111380F23
:1008400008F43FEF8195889410FD430F47958894F5
:1008500011FD430F4795889412FD430F47958894E7
:1008600013FD430F4795889414FD430F47958894D3
:1008700015FD430F4795889416FD430F47958894BF
:1008800017FD430F47958894232F1111242F8C0DAA
:10089000422F002C75B900C000C047FF65B93181F7
:1008A0002227889400C0002C65B93111390F00C08F
:1008B000002C75B900C000C046FF65B908F43FEFD1
:1008C0009195889400C0002C65B900FD230F00C0ED
:1008D000002C75B900C000C045FF65B92795889404
:1008E00001FD230F00C0002C65B92795889400C036
:1008F000002C75B900C000C044FF65B902FD230F8C
:100900002795889400C0002C65B903FD230F00C013
:10091000002C75B900C000C043FF65B927958894C5
:1009200004FD230F00C0002C65B92795889400C0F2
:10093000002C75B900C000C042FF65B905FD230F4A
:100940002795889400C0002C65B906FD230F00C0D0
:10095000002C75B900C000C041FF65B92795889487
:1009600007FD230F00C0002C65B92795889400C0AF
:10097000002C75B900C000C040FF65B9432F0111BC
:10098000422F9A0D00C0002C65B900C000C0002C99
:1009900075B900C000C047FF65B93281222788942D
:1009A00000C0002C65B931113C0F00C0002C75B996
:1009B00000C000C046FF65B908F43FEFEB0DF11D24
:1009C00000C0002C65B9D0FC230F00C0002C75B905
:1009D00000C000C045FF65B927958894D1FC230F5E
:1009E00000C0002C65B92795889400C0002C75B90B
:1009F00000C000C044FF65B9D2FC230F279588943E
:100A000000C0002C65B9D3FC230F00C0002C75B9C1
:100A100000C000C043FF65B927958894D4FC230F1C
:100A200000C0002C65B92795889400C0002C75B9CA
:100A300000C000C042FF65B9D5FC230F27958894FC
:100A400000C0002C65B9D6FC230F00C0002C75B97E
:100A500000C000C041FF65B927958894D7FC230FDB
:100A600000C0002C65B92795889400C0002C75B98A
:100A700000C000C040FF65B9432FD110422FC1957F
:100A800000C0002C65B9CE0D00C000C075B900C013
:100A900000C047FF65B930812227889400C0002C30
:100AA00065B93111380F00C0002C75B900C000C005
:100AB00046FF65B908F43FEF8195889400C0002C8B
:100AC00065B910FD230F00C0002C75B900C000C02F
:100AD00045FF65B92795889411FD230F00C0002CB0
:100AE00065B92795889400C0002C75B900C000C076
:100AF00044FF65B912FD230F2795889400C0002C90
:100B000065B913FD230F00C0002C75B900C000C0EB
:100B100043FF65B92795889414FD230F00C0002C6E
:100B200065B92795889400C0002C75B900C000C035
:100B300042FF65B915FD230F2795889400C0002C4E
:100B400065B916FD230F00C0002C75B900C000C0A8
:100B500041FF65B92795889417FD230F00C0002C2D
:100B600065B92795889400C0002C75B900C000C0F5
:100B700040FF65B9432F1111422F8C0D00C0002C8E
:100B800065B9119709F086CE20EE31E0D2010E94BE
:100B9000860ADC01CB01F4E0B695A7959795879579
:100BA000FA95D1F730E020E0B901EAE94E9E040C55
:100BB000611D5E9E600D711D1124650D711D860FF6
:100BC000971FA11DB11D893E43E09407A105B10502
:100BD00008F434C0885E9340A109B10942E0B6959B
:100BE000A795979587954A95D1F747E0849F080E7A
:100BF000211D949F200D311D1124290F311D60915D
:100C00005E0170E0860F971F820F931F4091800155
:100C1000509181016091820170918301292F3327C6
:100C2000420F531F611D711D40938001509381013C
:100C3000609382017093830180935E0178940E9497
:100C4000B701F301708B6787DF91CF911F910F91EF
:100C5000EF90DF90CF90BF90AF908F907F906F908C
:100C60005F904F900895249A0895EF92FF920F930A
:100C70001F93CF93DF93CDB7DEB762970FB6F8948B
:100C8000DEBF0FBECDBF7C01DC011C968C917A8348
:100C900069835C834B835E834D830D871E872F871B
:100CA000813001F5CE0101960E94A30383E0888B79
:100CB0001A8A198AD701ED91FC910484F585E02DFB
:100CC000BE016F5F7F4FC701099562960FB6F8941A
:100CD000DEBF0FBECDBFDF91CF911F910F91FF906F
:100CE000EF9008951C861B861A86198618861F8227
:100CF000DDCFEF92FF920F931F93CF93DF93CDB78A
:100D0000DEB762970FB6F894DEBF0FBECDBF7C0191
:100D1000DC011C968C917A8369835C834B835E83B0
:100D20004D830D871E872F878130F9F4CE01019600
:100D30000E94A303188A1A8A198AD701ED91FC919F
:100D40000484F585E02DBE016F5F7F4FC7010995D3
:100D500062960FB6F894DEBF0FBECDBFDF91CF9184
:100D60001F910F91FF90EF9008951C861B861A86A5
:100D7000198618861F82DECF0895089590E080E0DE
:100D80000895FC018585968508950F931F93CF9351
:100D9000DF9300D01F92CDB7DEB7AB0119821A8264
:100DA0001B82DC01ED91FC910190F081E02D00E0CF
:100DB00010E020E0BE016F5F7F4F09950F900F900C
:100DC0000F90DF91CF911F910F9108950E94E60B34
:100DD0000C945D0B0C945D0B1F920F920FB60F924B
:100DE00011242F933F934F935F936F937F938F9330
:100DF0009F93AF93BF93EF93FF9380E991E00E949D
:100E00002301FF91EF91BF91AF919F918F917F91BE
:100E10006F915F914F913F912F910F900FBE0F9067
:100E20001F9018951F920F920FB60F9211242F93B7
:100E30008F939F93EF93FF93E091A001F091A10115
:100E40008081E091A601F091A70182FD1BC09081F5
:100E50008091A9018F5F8F732091AA01821741F0C1
:100E6000E091A901F0E0E057FE4F958F8093A90132
:100E7000FF91EF919F918F912F910F900FBE0F9047
:100E80001F9018958081F4CF1F920F920FB60F928A
:100E900011242F933F938F939F93AF93BF93809190
:100EA000800190918101A0918201B09183013091E4
:100EB000600123E0230F2D3758F50196A11DB11DC8
:100EC000209360018093800190938101A09382011F
:100ED000B09383018091610190916201A0916301BF
:100EE000B09164010196A11DB11D809361019093A1
:100EF0006201A0936301B0936401BF91AF919F9190
:100F00008F913F912F910F900FBE0F901F901895CA
:100F100026E8230F0296A11DB11DD2CFCF93DF93F8
:100F2000E0E9F1E01382128288EE93E0A0E0B0E005
:100F300084839583A683B78386E391E0918380833E
:100F400085EC90E09587848784EC90E0978786878E
:100F500080EC90E0918B808B81EC90E0938B828B86
:100F600082EC90E0958B848B86EC90E0978B868B5F
:100F7000118E128E138E148EEDE2F2E08FEF8083CD
:100F800012821182148613868FEF9FEFDC01878314
:100F90009087A187B287EFECF2E01082118284E0A3
:100FA00090E00E94C10AEC0188E491E09983888373
:100FB00088E090E00E94C10AFC01D183C0839B833A
:100FC0008A8381E390E0978386838CE392E0938326
:100FD0008283F0933B02E0933A02DF91CF91089530
:100FE000789484B5826084BD84B5816084BD85B504
:100FF000826085BD85B5816085BD80916E00816010
:1010000080936E00109281008091810082608093B5
:1010100081008091810081608093810080918000B7
:101020008160809380008091B10084608093B100E2
:101030008091B00081608093B00080917A008460DC
:1010400080937A0080917A00826080937A00809108
:101050007A00816080937A0080917A008068809322
:101060007A001092C100E091A001F091A10182E00C
:101070008083E0919C01F0919D011082E0919E019E
:10108000F0919F018FEC80831092A801E091A40160
:10109000F091A50186E08083E091A201F091A30187
:1010A000808180618083E091A201F091A301808121
:1010B00088608083E091A201F091A3018081806823
:1010C0008083E091A201F091A30180818F7D8083D4
:1010D0004EE050E06EE471E080E991E00E94A500EE
:1010E0004DE950E0FA01649189E890E0FC01249117
:1010F000222399F030E0220F331FF901E859FF4F06
:10110000A591B491F901EE58FF4F259134912FB775
:10111000F8943C91632B6C932FBFE1EBF0E02491AA
:10112000FA014491FC0194919923E1F0222359F0B2
:10113000233009F4DFC008F0D2C0213009F4E0C048
:10114000223009F4E1C0E92FF0E0EE0FFF1FEE5866
:10115000FF4FA591B4918FB7F8949C914095492386
:101160004C938FBFE0913A02F0913B0288EE93E0FE
:10117000958384832681378180917801811145C0D0
:1011800010926A01109269018FEF80936D01809334
:101190006E0180936F018093700180937101809341
:1011A000720181E0809373011092750110927401B5
:1011B00010926C0110926B0180918A0190918B01C9
:1011C000892B31F487E691E090938B0180938A011B
:1011D000E0916501F0916601309721F087E691E09A
:1011E0009583848387E691E09093660180936501FF
:1011F00010927701109276018AE191E09093680154
:101200008093670181E080937801249A8CE392E0D7
:1012100090936A0180936901309375012093740162
:101220008091300290913102A0913202B09133024C
:10123000843CF9E09F07A105B10520F484EC99E016
:10124000A0E0B0E08093300290933102A09332028C
:10125000B0933302A0913A02B0913B02ECE3F2E08A
:1012600090E080E016962D913C9117978217930796
:101270000CF457C008E411E080E0E82E80E0F82E7E
:10128000DD24D39480E991E00E9403011816190629
:1012900044F480E991E00E94E1008093D002D09272
:1012A000CF028091CF02882309F447C0C0913A024F
:1012B000D0913B028091D002823609F4A6C00CF096
:1012C00055C08734A4F58334A4F5813491F10CF032
:1012D0007FC0803209F477C083E290E076C0273087
:1012E000B1F02830D1F0243009F02DCF809180006A
:1012F0008F7D03C0809180008F778093800023CF03
:1013000084B58F7784BD1FCF84B58F7DFBCF80914F
:10131000B0008F778093B00016CF8091B0008F7DA2
:10132000F9CF108211821282019633969BCF8E35AF
:101330009CF21092D0021092CF02E0913A02F0910A
:101340003B0280819181DC01ED91FC910480F5816B
:10135000E02D0995E114F10409F494CF0E940F01E6
:10136000882309F48FCF0E9400008CCF893709F4BD
:1013700062C004F58736ECF2883709F0ADCF0CE295
:1013800011E080E991E00E94030118161906CCF7DC
:1013900080E991E00E94E1008130910509F43FC0AD
:1013A000029779F785E090E00E94C10AFC01118361
:1013B00000833CC08D3709F457C00CF4BACF8E3788
:1013C00009F4B7CF89CF81E290E00E949201B1CFBA
:1013D00080E991E00E94030118161906CCF780E914
:1013E00091E00E94E100C82E80E991E00E94030193
:1013F00018161906CCF780E991E00E94E1009C2DB7
:101400009D838C8382E290E0E0CF9D81892F990FAC
:10141000990B0E9492018C819D819927D6CF85E0FE
:1014200090E00E94C10ADC010D931C93BC01CE0127
:101430000E948700A6CF90E080E030E020E04E815F
:101440005F81241735075CF4EA81FB81E80FF91FFF
:101450001082118212822F5F3F4F0396F0CF80914E
:101460002D020E94DC01CECF84E090E00E94C10AF0
:10147000DC010D931C93BC01CE010E948700C2CFFA
:10148000DB018F939F930E948D0ABF91AF91A29F22
:10149000800D911DA39F900DB29F900D1124089572
:1014A00097FB072E16F4009407D077FD09D00E9411
:1014B000980A07FC05D03EF4909581959F4F0895BA
:1014C000709561957F4F0895A1E21A2EAA1BBB1B50
:1014D000FD010DC0AA1FBB1FEE1FFF1FA217B30700
:1014E000E407F50720F0A21BB30BE40BF50B661F16
:1014F000771F881F991F1A9469F7609570958095DA
:1015000090959B01AC01BD01CF0108950E94B20AE4
:10151000B7FF0895821B930B08950E94B20AA59FFE
:10152000900DB49F900DA49F800D911D11240895DE
:10153000AA1BBB1B51E107C0AA1FBB1FA617B707F9
:1015400010F0A61BB70B881F991F5A95A9F7809515
:101550009095BC01CD010895EE0FFF1F0590F49109
:10156000E02D0994A29FB001B39FC001A39F700D0D
:10157000811D1124911DB29F700D811D1124911D9B
:1015800008950F931F93CF93DF938230910510F44A
:1015900082E090E0E091D302F091D40230E020E0CC
:1015A000B0E0A0E0309799F42115310509F44AC064
:1015B000281B390B24303105D8F58A819B816115B0
:1015C000710589F1FB0193838283FE0111C0408183
:1015D00051810281138148175907E0F048175907D4
:1015E00099F4109761F012960C93129713961C932E
:1015F0003296CF01DF91CF911F910F910895009303
:10160000D3021093D402F4CF2115310551F04217C3
:10161000530738F0A901DB019A01BD01DF01F80190
:10162000C1CFEF01F9CF9093D4028093D302CDCFF5
:10163000FE01E20FF31F8193919322503109398308
:101640002883D7CF2091D1023091D202232B41F4AD
:1016500020910201309103013093D2022093D102F4
:1016600020910001309101012115310541F42DB780
:101670003EB74091040150910501241B350BE091C8
:10168000D102F091D202E217F307A0F42E1B3F0B18
:101690002817390778F0AC014E5F5F4F24173507E4
:1016A00048F04E0F5F1F5093D2024093D1028193B6
:1016B00091939FCFF0E0E0E09CCFCF93DF93009732
:1016C000E9F0FC01329713821282A091D302B0910B
:1016D000D402ED0130E020E01097A1F420813181A7
:1016E000820F931F2091D1023091D202281739071F
:1016F00009F061C0F093D202E093D102DF91CF9163
:101700000895EA01CE17DF07E8F54A815B819E0163
:1017100041155105B1F7E901FB83EA8349915991DC
:10172000C40FD51FEC17FD0761F4808191810296EB
:10173000840F951FE90199838883828193819B831C
:101740008A83F0E0E0E012968D919C9113970097C8
:10175000B9F52D913C911197CD010296820F931FFF
:101760002091D1023091D2022817390739F63097EB
:1017700051F51092D4021092D302B093D202A093EA
:10178000D102BCCFD383C28340815181840F951F86
:10179000C817D90761F44E5F5F4F88819981480F60
:1017A000591F518340838A819B81938382832115B2
:1017B000310509F0B0CFF093D402E093D3029ECF6D
:1017C000FD01DC01C0CF13821282D7CF81E090E00F
:0A17D000F8940C94EB0BF894FFCF93
:1017DA000000D502800000000000E606E606E606E4
:1017EA00C506C106BE0600000000790635063306A6
:1017FA00C506C106A200E003000000000203EA06D3
:10180A000303000000004501A500D200970103016F
:10181A00E100F50000000000BC06E806BD065365BD
:0E182A0074757020456E74657265642100004F
:00000001FF
